:020000040800F2
:10000000E8A30020E1010008E9010008EB01000875
:10001000ED010008EF010008F101000800000000F8
:10002000000000000000000000000000490100087E
:10003000F5010008000000008D01000861100008B3
:10004000FB010008FB010008FB010008FB010008A0
:10005000FB010008FB010008FB010008FB01000890
:10006000FB010008FB010008FB010008FB01000880
:10007000FB010008FB010008FB010008FB01000870
:10008000FB010008FB010008FB010008FB01000860
:10009000FB010008FB010008FB010008FB01000850
:1000A000FB010008FB010008FB010008FB01000840
:1000B000FB010008FB010008FB010008FB01000830
:1000C000FB010008FB010008FB010008FB01000820
:1000D000FB01000875100008FB010008A7100008CC
:1000E000FB010008FB010008FB010008FB01000800
:1000F000FB010008FB010008FB010008FB010008F0
:10010000FB010008FB010008FB010008FB010008DF
:10011000FB010008FB010008FB010008FB010008CF
:10012000FB010008FB010008FB010008FB010008BF
:10013000DFF810D003F0AAFD00480047230F0008A5
:10014000AFF30080E8A30020224B19680868B0E8EC
:10015000F00F80F30988BFF36F8F4FF0000080F33A
:1001600011884EF00D0E7047000000000648006830
:10017000006880F3088862B661B6BFF34F8FBFF3A3
:100180006F8F00DF00BF00BF08ED00E0EFF30980D4
:10019000BFF36F8F0F4B1A6820E9F00F106008B59E
:1001A0004FF0500080F31188BFF34F8FBFF36F8F74
:1001B00002F03FFE4FF0000080F31188BDE80840D8
:1001C00019680868B0E8F00F80F30988BFF36F8FF3
:1001D000704700BF60000020EFF30580704700000B
:1001E0000648804706480047FEE7FEE7FEE7FEE7D1
:1001F000FEE7FEE7FEE7FEE7FEE7FEE7A5020008F2
:10020000310100080CB500224C48009201920168AF
:1002100041F4803101604FF4A063016801F40031C2
:1002200001910099491C0091019911B900999942D5
:10023000F3D10168890333D50121019140490A684E
:1002400042F010020A600A6822F003020A600A689B
:1002500042F002020A6041684160416841604168C1
:1002600041F480614160416821F47C114160416842
:1002700041F4E8114160016841F08071016001685A
:100280008901FCD5416821F003014160416841F0DA
:10029000020141604168C1F381010229FAD10CBD1C
:1002A00001920CBD254810B5016841F001010160C3
:1002B0004168244A114041600168234A11400160AD
:1002C000016821F480210160416821F4FE01416050
:1002D0004FF41F018160FFF795FF1C494FF000604C
:1002E000086010BD154A10B55068194B10F00C018C
:1002F000184803D0042901D0082901D0036012E076
:100300005168536801F470114FF0020413F4803FF8
:1003100004EB914102D053689B0301D50E4B00E0E2
:100320000B4B5943016051680A4AC1F30311121D76
:10033000515C0268CA40026010BD0000001002401B
:10034000002002400000FFF8FFFFF6FE08ED00E08D
:1003500000127A000000002000093D0028490843EF
:1003600028490860704730B50F23C278017801250D
:10037000F2B1244A126801F1E02102F4E062C2F510
:10038000E062120AC2F10404D3404278A2408478A9
:100390001C401443220181F80024007800F01F0162
:1003A0008D404009800000F1E020C0F8005130BDD0
:1003B00001F01F0085404809800000F1E020C0F8EE
:1003C000805130BD104A114001430E48001F0160AA
:1003D00070470C4A121D0029116801D0014300E04A
:1003E0008143116070474FF0E0210428086903D071
:1003F00020F004000861704740F00400FAE70000B4
:100400000000FA050CED00E080FFFF1F01684FF6C9
:10041000FE72114001600021016041608160C16095
:100420006A496A4A0839904203D1486840F00F008F
:1004300006E0664A1432904204D1486840F0F00069
:1004400048607047614A2832904203D1486840F4BE
:100450007060F5E75D4A3C32904203D1486840F451
:100460007040EDE7594A5032904203D1486840F459
:100470007020E5E7554A6432904203D1486840F461
:100480007000DDE7514A7832904203D1486840F06D
:100490007060D5E74E4A111F904203D1086840F0C2
:1004A0000F0006E04A4A1432904204D1086840F036
:1004B000F00008607047464A2832904203D108682D
:1004C00040F47060F5E7424A3C32904203D108683C
:1004D00040F47040EDE73E4A50329042EAD108685D
:1004E00040F47020E5E730B5026847F6F0739A43B0
:1004F0000C6A8B682343D1E904452C4323438C6960
:100500002343CC6923434C6A23438C6A234313431C
:100510000360CA6842600A6882604968C16030BD91
:100520000021016041608160C160016141618161C0
:10053000C16101624162816270470029016802D095
:1005400041F0010102E04FF6FE7211400160704778
:10055000002A026801D00A4300E08A430260704723
:1005600041607047406880B2704702460020D10069
:1005700002D51749083901E01449083909681142C0
:1005800000D001207047C10003D51149091F086040
:1005900070470E4908394860704702460020D10074
:1005A00002D50B49083901E00849083909681142A8
:1005B00000D001207047C10003D50549091F08601C
:1005C000704702490839486070470000080002403F
:1005D000080402408F4910B5884206D10121042049
:1005E00000F049FA002104203BE08B49884206D103
:1005F0000121082000F03FFA0021082031E087495E
:10060000884206D10121102000F035FA0021102087
:1006100027E08349884206D10121202000F02BFAEF
:10062000002120201DE07F49884206D10121402081
:1006300000F021FA0021402013E07B49884206D1D6
:100640000121802000F017FA0021802009E077497D
:1006500088420AD184150121204600F00CFA0021BD
:100660002046BDE8104000F006BA10BD10B50121CB
:10067000084600F000FA0021BDE81040012000F01B
:10068000FAB9F0B5CC78002204F00F03E40601D5E6
:100690008C7823430C784FF00F0C14F0FF0F4FF0C1
:1006A000010E1BD005680E880EFA02F42640A64201
:1006B00010D196000CFA06F725EA070703FA06F5AB
:1006C000CE783D43282E02D0482E02D002E044616D
:1006D00000E00461521C082AE5D305600A88FF2A5D
:1006E0001CD94468002202F108060EFA06F50E88AD
:1006F0002E40AE420ED196000CFA06F7BC4303FA28
:1007000006F7CE783C43282E00D14561CE78482E9E
:1007100000D10561521C082AE5D34460F0BD4FF6B4
:10072000FF710180022181700421C170704702466F
:10073000002092680A4200D001207047806880B291
:10074000704702460020D2680A4200D0012070475C
:10075000C06880B2704701617047416170470AB15B
:100760000161704741617047C160704741F4803258
:100770008261816182618169806970472C4B10B50B
:100780001A684FF68074224042EA0010084318604D
:1007900010BD2849C8617047F0B5254C002801DA22
:1007A000E36900E06368450D2E0185B2C0F301578F
:1007B000B540C0F30342032F05D0C6020AD5032675
:1007C0009640B34307E023F07062636823F07063E0
:1007D000636002E0AB4343F0706201B12A4300283A
:1007E00001DAE261F0BD6260F0BD10B58A0721F068
:1007F00003040F49120F21440F238C6893409C433C
:100800008C608B68904003438B6010BD0949C1F830
:10081000DC00704700080140000C0140001001405E
:100820000014014000180140001C0140002001405C
:100830000000014000002042A548016841F001018C
:1008400001604168A34A114041600168A24A114019
:100850000160016821F480210160416821F4FE01FA
:1008600041604FF41F018160704799490A6822F482
:1008700080320A600A6822F480220A60B0F5803F64
:1008800007D0B0F5802F03D1086840F4A02008609D
:100890007047086840F48030F9E7034600205909A2
:1008A0008B4A01290AD002290AD0516A03F01F029B
:1008B000012393400B4200D0012070471168F5E7F7
:1008C000116AF3E718B500204FF4A06400903120BE
:1008D000FFF7E3FF0099491C0091A14201D00028D5
:1008E000F5D03120FFF7D9FF002800D0012018BD36
:1008F000774A116821F0F80141EAC00010607047A2
:10090000764908607047724B5A68084322F47C129B
:100910001043586070477149086670476C4A5168C7
:1009200021F003010143516070476948406800F0BD
:100930000C007047664A516821F0F0010143516094
:100940007047634A516821F4E06101435160704788
:100950005F4A516821F4605141EAC000506070471D
:100960005B4A0029517A01D0014300E08143517272
:1009700070475A49C1F8D8007047554A516821F468
:1009800040410143516070475149002281F82020C5
:1009900081F82020012802D0042802D1052081F806
:1009A000200070474E490860704749490A6A02436F
:1009B0000A6270474A4944390860704730B5444A72
:1009C0005168484B11F00C0103D0042901D00829CB
:1009D00001D0036012E05168536801F470114FF0C8
:1009E000020413F4803F04EB914102D053689B034F
:1009F00001D53D4B00E03B4B5943016051680F234B
:100A000003EA1111394B5C5C0168E14041605468B4
:100A1000072505EA14241C5D21FA04F48460546857
:100A200005EAD4241B5DD940C1605268032303EA60
:100A300092322E4B1B1F9A5CB1FBF2F1016130BD6B
:100A4000234A0029516901D0014300E081435161EB
:100A500070471F4A0029916901D0014300E081439A
:100A6000916170471A4A0029D16901D0014300E021
:100A70008143D1617047164A0029D16801D00143F2
:100A800000E08143D1607047114A0029116901D00B
:100A9000014300E08143116170471149403908600A
:100AA00070470E49C86470470949C87170470848C3
:100AB000416A41F0807141627047054A0146002059
:100AC00092680A4200D0012070470149887270473D
:100AD000001002400000FFF8FFFFF6FE0000424257
:100AE0008004424200127A0000093D0018000020F4
:100AF000C44910B588420AD101218C032046FFF772
:100B0000BAFF2046BDE810400021FFF7B4BFBE4940
:100B1000884202D101214C0410E0BC49884202D134
:100B200001218C040AE0BA49884202D10121CC0497
:100B300004E0B84988420AD101210C052046FFF79C
:100B4000A3FF2046BDE810400021FFF79DBF10BD68
:100B500030B50446008A85B00D464CF6FF7108405A
:100B6000E98801432182A0894EF6F3110840A98843
:100B70002A8911436A8902431143A181A08A4FF651
:100B8000FF410840A9890143A1826846FFF716FF8B
:100B90009C48844201D1039800E00298A18909048D
:100BA00000EBC00101EB0010296801D5490000E00D
:100BB0008900B0FBF1F06422B0FBF2F109010B09EE
:100BC0006FF018056B4300EB8300A3891D044FF001
:100BD000320306D503EBC000B0FBF2F000F00700D3
:100BE00005E003EB0010B0FBF2F000F00F0008434B
:100BF000208105B030BD4FF4165101600021818085
:100C0000C18001810C2242818181704710B5028A26
:100C10004FF2FF031A400B884C8823438C88C98805
:100C20000C4323431343038210BD00210180418004
:100C30008180C18070470029818902D041F4005130
:100C400001E021F400518181704710B5C1F34213D6
:100C500001F01F040121A140012B07D0022B07D076
:100C60001430002A026805D00A4304E00C30F8E78B
:100C70001030F6E78A43026010BD002A828A01D054
:100C80000A4300E08A4382827047028A22F00F0200
:100C90000282028A0A4302827047828922F4006239
:100CA000828182890A43828170470029818902D02A
:100CB00041F0020101E021F0020181817047028AC6
:100CC00022F020020282028A0A430282704700292F
:100CD000018A02D041F4804101E021F48041018287
:100CE0007047C1F30801818070478088C0F3080015
:100CF0007047818941F0010181817047028BD2B236
:100D00000283028B42EA012101837047028B02F4C5
:100D10007F420283028B0A43028370470029818A43
:100D200002D041F0200101E021F0200181827047D2
:100D30000029818A02D041F0100101E021F0100168
:100D4000818270470029818A02D041F0080101E0C8
:100D500021F00801818270470029818902D041F485
:100D6000004101E0C1F30E01818170470029818AB1
:100D700002D041F4006101E021F4006181827047FA
:100D8000828A22F004028282828A0A438282704727
:100D90000029818A02D041F0020101E021F0020124
:100DA000818270470246002012880A4200D001204A
:100DB0007047C9430180704770B501F01F050126D7
:100DC0000024C1F3421306FA05F2012B0FD0022BC7
:100DD0000FD0838A4FEA11210088134206FA01F6E8
:100DE00000EA060001D000B10124204670BD8389CD
:100DF000F0E7038AEEE70A0A01219140C943018026
:100E000070470000003801400044004000480040A6
:100E1000004C004000500040544E554DB5F80004C1
:100E20000004FBD500240AE0295D3046FFF759FF96
:100E300040213046FFF7B6FF0028F9D0641CB5F812
:100E40000004C0F30E00A042EEDCB5F800046FF31E
:100E50000E00A5F80004B5F8000420F40040A5F841
:100E60000004DBE7434D444C444F4FF0FF364FF452
:100E70007A78002332461946E86801F016FB01280B
:100E8000F7D1206880F0010020603D4A3DA138463E
:100E900000F0EAFA41463A4802F0C5FEE9E77CB5BF
:100EA00002F01EFE03220021012001F009F9314C5D
:100EB00003220021E060012001F002F92061E068D6
:100EC00010B135A002F0F4FE206910B13CA002F090
:100ED000EFFE28480325001DCDE900504FF40076B1
:100EE0000023324640A1434801F015FD012802D1FC
:100EF00041A002F0DDFE1F4800230830CDE900507C
:100F0000324643A1454801F006FD012802D144A024
:100F100002F0CEFE206801F029FDBDE87C4002F021
:100F2000F9BD1CB54FF44070FFF718FA00F004F952
:100F300000F088F900F030F900F04EFA00F0C5FE3C
:100F40003DA002F0B5FE0B490120CDE900014202AF
:100F500000233EA1414801F0DEFC012802D04FF001
:100F6000FF301CBD02F07DF8FEE7000000380140B4
:100F7000AC040020280000200C0C01400048004078
:100F8000C400002050432D2D3E414E44524F494451
:100F90003A2025730D0A000042696E61727953652B
:100FA0006D5F48616E646C65B6FED6B5D0C5BAC5D6
:100FB000C1BFB4B4BDA8B3C9B9A60D0A00000000F2
:100FC00042696E61727953656D5F48616E646C65EC
:100FD0005F32B6FED6B5D0C5BAC5C1BFB4B4BDA8E0
:100FE000B3C9B9A60D0A00004B45595F5461736B34
:100FF00000000000650E0008B4B4BDA84B45595F61
:101000005461736BC8CECEF1B3C9B9A60D0A000006
:101010004553505F5461736B00000000190E0008C7
:10102000B4B4BDA84553505F5461736BC8CECEF1C4
:10103000B3C9B9A60D0A0000D3B2BCFEB3F5CABC51
:10104000BBAFCDEAB3C90D0A000000004170705477
:1010500061736B4372656174650000009F0E000848
:1010600010B502F05AF9012803D0BDE8104002F093
:1010700062BD10BD70B55020EFF3118480F311886C
:10108000BFF34F8FBFF36F8F244D40F224412846AA
:10109000FFF792FE20B100F004F92846FFF725FE85
:1010A00084F3118870BD70B51D4D40F2255128465E
:1010B000FFF782FE1B4CC0B12846FFF716FEC2B2F6
:1010C000B4F8000440F2FF31C0F30E0088420CD2A5
:1010D000B4F80004C0F30E01B4F800046318491C0E
:1010E00061F30E00A4F800041A7040F2244128466F
:1010F000FFF762FE012810D1B4F8000440F400406C
:10110000A4F800042846FFF7F0FD07A1054802F007
:1011100095FD00B101200749087070BD00380140FD
:1011200000480040AC040020434C4F5345440D0A96
:10113000000000003C00002038B501210820FFF726
:1011400088FC2020ADF8000010208DF8030003205B
:10115000104C8DF8020069462046FFF792FA0121F3
:10116000ADF8001069462046FFF78BFA0221ADF872
:10117000001069462046FFF784FA20212046FFF739
:10118000EAFA01212046FFF7E6FA02212046FFF79E
:10119000E2FA38BD000C014030B587B001210420CF
:1011A000FFF757FC01218803FFF753FC4FF4007051
:1011B000ADF8100018208DF813000320804C8DF836
:1011C000120004A92046FFF75CFA2115ADF81010B3
:1011D00004218DF8131004A92046FFF752FA0024C9
:1011E0004FF4E1300090ADF808400C20754DADF89B
:1011F0000440ADF80A00ADF80640ADF80C40694671
:101200002846FFF7A5FC25218DF8141007208DF83E
:1012100015008DF8164001208DF8170005A8FFF77E
:10122000A2F8012240F224412846FFF70EFD0122D8
:1012300040212846FFF721FD01212846FFF7FBFC4E
:1012400007B030BD10B501218CB00846FFF7F8FBA0
:101250005C484FF47A71001D00905B4801900020BB
:10126000CDE902018021CDE9040120210690CDE9DC
:1012700007014FF44051CDE90910544C694620460E
:10128000FFF731F94FF48030FFF77DF90122082193
:101290002046FFF75DF901212046FFF74EF90CB01B
:1012A00010BD38B5494C00212046FFF746F94FF4F0
:1012B0000030FFF768F9454A4FF47A71583AD16522
:1012C00001212046FFF739F941486946006801F0DD
:1012D00078F80098002807D03E494FF08050086009
:1012E000BFF34F8FBFF36F8F38BD10B50446FFF7C4
:1012F000F8FC80212046FFF755FD0028F9D010BDED
:101300002DE9F04115460E460746002405E0315D03
:101310003846FFF7EAFF641CE4B2AC42F7D3402141
:101320003846FFF73FFD0028F9D0BDE8F08170B5E1
:101330000D46064600243046295DFFF7D6FF641CA3
:10134000285D0028F7D140213046FFF72BFD00280B
:10135000F9D070BD70B50446080ACDB201462046EA
:10136000FFF7BFFC80212046FFF71CFD0028F9D0C5
:1013700029462046FFF7B5FC80212046FFF712FDE5
:101380000028F9D070BD70B50E4D0446C1B2284694
:10139000FFF7A7FC80212846FFF704FD0028F9D0BD
:1013A000204670BD10B5074C20212046FFF7FAFCFF
:1013B0000028F9D02046BDE81040FFF796BC000099
:1013C0000008014000380140C400002058000240DD
:1013D0003400002004ED00E0F8B501210820FFF7FB
:1013E00038FB4FF48074ADF8004010208DF80300F6
:1013F0000320FB4E8DF8020069463046FFF741F9A5
:1014000001210820FFF725FB6500ADF80050694673
:101410003046FFF736F900F06AFB29463046FFF701
:101420009AF921463046BDE8F840FFF796B942F6F2
:10143000E06303E01946491E89B2FCD2401E80B227
:10144000F8D2704770B5E64D4FF400742146284637
:10145000FFF783F94FF4FA70FFF7E9FF21462846BA
:10146000BDE87040FFF777B90FB42DE9FF4106469C
:101470000CAC00250FE05C2915D000F101002529F6
:101480000B901ED03046FFF72CFC80213046FFF732
:1014900089FC0028F9D00B9801780029EBD1BDE830
:1014A000FF015DF814FB401C0B9001786E2903D0FE
:1014B00072291BD10D2100E00A213046FFF711FCF3
:1014C00013E00178642914D073290FD180CC09E08E
:1014D0003046FFF706FC80213046FFF763FC00280A
:1014E000F9D07F1C39780029F2D10B98401C0B9061
:1014F000CBE702CC0027684600291FD007DA4FF05F
:101500002D028DF80020C1F1000100F1010042F22E
:1015100010724FF00A0C91FBF2F353EA070E06D05B
:1015200003F1300700F8017B03FB1211012792FB46
:10153000FCF2002AEFDC05706F460FE030208DF8DA
:1015400000008DF80150F7E73046FFF7CAFB802115
:101550003046FFF727FC0028F9D07F1C3978002996
:10156000F2D1C2E72DE9F0419E4C0E461F46B4F879
:10157000001415466FF30E01A4F8001402469AA158
:101580009B48FFF771FF56EA050025D0B8B2FFF778
:101590004EFFB4F800140020C1F30E016054214640
:1015A00094A002F085FBB4F800046FF30E00A4F8D9
:1015B0000004B4F8000420F40040A4F800042EB1A4
:1015C000314625B1204602F039FB28B92946854825
:1015D00002F034FB002800D00120BDE8F08100B506
:1015E0008BB085A1684602F073FB4FF4FA730022BA
:1015F00086A16846FFF7B6FF0BB000BD70B50024AA
:101600004FF400717648FFF7A6F881A002F050FB76
:101610004FF4FA60FFF70BFF4FF4FA75214680A0F4
:1016200002F046FB2B46002278A183A0FFF79AFF29
:1016300028B1214681A002F03BFB012070BDFFF7DD
:1016400001FF641CE4B20A2CE8D3002070BD40F610
:10165000C41328B1012807D0022809D00020704700
:101660007DA26AA17FA006E07BA268A180A002E023
:1016700079A266A181A075E700B59FB00B4602462E
:1016800081A1684602F024FB41F2883300225FA169
:101690006846FFF767FF1FB000BD00B59FB00B465F
:1016A000009202467DA101A802F012FB4FF47A736A
:1016B000002256A101A8FFF755FFECE700B585B061
:1016C00008B1012200E000227AA1684602F000FB86
:1016D0004FF4FA7300224DA16846FFF743FF05B0AF
:1016E00000BDF0B5B9B00F4604461E46154664214C
:1016F00001A802F098FA14B1012C0BD103E03B468B
:1017000070A2009502E03B466FA200956FA101A870
:1017100002F0DEFA052E06D201AB32466FA11AA8FE
:1017200002F0D6FA04E001AA71A11AA802F0D0FAD8
:101730004FF47A6372A235A11AA8FFF713FF39B0EC
:10174000F0BD30B5BDB015464FF4FA740B46E0B1AC
:1017500001226FA1684602F0BBFA2A4671A11EA8B9
:1017600002F0B6FA2346002228A16846FFF7FAFEE7
:1017700048B12346002225A11EA8FFF7F3FE10B1B1
:1017800001203DB030BD0020FBE7002260A168468B
:1017900002F09EFA234600221CA16846FFF7E2FEF3
:1017A000EFE710B54FF4FA73002218A161A0FFF71C
:1017B000D9FEA0B163A10B4802F040FA08B10220A3
:1017C00010BD63A1074802F039FA08B1032010BD2B
:1017D00062A1044802F032FA08B1042010BDC3E04F
:1017E000000C0140AC04002025730D0A000000002D
:1017F000004800402573000041542B4357444843A0
:10180000505F4355523D312C310000004F4B0000DA
:101810000D0A4154B2E2CAD42E2E2E2E2E0D0A00ED
:101820000D0A4154B2E2CAD4B4CECAFD2025642EBA
:101830002E2E2E2E2E0D0A00415400000D0A41546A
:10184000B2E2CAD4C6F4B6AFB3C9B9A62025642E95
:101850002E2E2E2E2E0D0A006E6F206368616E678D
:101860006500000041542B43574D4F44453D310026
:1018700041542B43574D4F44453D320041542B4377
:10188000574D4F44453D330041542B43574A415037
:101890003D222573222C22257322000041542B4324
:1018A000575341503D222573222C222573222C317F
:1018B0002C25640041542B4349504D55583D256417
:1018C000000000005443500055445000222573226C
:1018D0002C222573222C25730000000041542B4339
:1018E000495053544152543D25642C257300000047
:1018F00041542B43495053544152543D25730000E9
:10190000414C5245415920434F4E4E4543540000EF
:1019100041542B4349505345525645523D25642C62
:101920002573000041542B43495053544F3D2573B8
:101930000000000041542B43495053544154555327
:10194000000000005354415455533A320D0A000030
:101950005354415455533A330D0A000053544154E3
:1019600055533A340D0A0000002010BD10B5002474
:101970004FF4FA732246AFF26C11AFF24800FFF752
:10198000F1FD002821D085A1884802F057F900B167
:10199000012487A1854802F051F908B144F00204FE
:1019A00087A1824802F04AF908B144F0040488A1F2
:1019B0007E4802F043F908B144F0080488A17B484E
:1019C00002F03CF908B144F01004204610BD70B597
:1019D0000D4604464FF4FA730022AFF2D01184A0F2
:1019E000FFF7C0FD85A1714802F028F900280BD04F
:1019F0000022801D05E0835CA354222B05D0521CDD
:101A0000D2B2AA42F7D3012070BD0020A054FAE759
:101A100010B54FF4FA7423460022AFF2102179A0DA
:101A2000FFF7A0FD002807D023467AA2AFF22421B9
:101A3000BDE8104078A095E510BD10B54FF47A7060
:101A4000FFF7F5FC77A17848FFF70EFDBDE81040E1
:101A50004FF4FA70EBE430B585B01C460D4640B14A
:101A60000A46AFF270217048FFF7FEFC012005B076
:101A700030BD052C06D2931C22466CA1684602F0AC
:101A800027F904E06EA16846921C02F021F9642354
:101A900000226FA16846FFF765FD4FF4FA7300223C
:101AA0006CA12846FFF75EFDE1E7404910B5B1F8AB
:101AB000002400246FF30E02A1F80024B1F80024E2
:101AC00022F40042A1F80024B1F800241204FBD54E
:101AD000B1F800340022C3F30E03CA5420B95FA149
:101AE000324802F0ABF800B1304C204610BD30B5A2
:101AF000012187B08804FEF7B5FF01210820FEF719
:101B0000A8FF4FF48060ADF8100018208DF8130086
:101B10000320544C8DF8120004A92046FEF7B1FDB5
:101B2000E114ADF8101004218DF8131004A920461B
:101B3000FEF7A7FD00244FF4E1300090ADF8084017
:101B40000C20394DADF80440ADF80A00ADF8064060
:101B5000ADF80C4069462846FEF7FAFF012240F234
:101B600025512846FFF771F8012240F2244128460A
:101B7000FFF76BF827218DF8141007208DF815005A
:101B80008DF8164001208DF8170005A8FEF7EBFB35
:101B900001212846FFF74FF807B030BD2B434950CD
:101BA0005354415455533A302C000000AC040020EB
:101BB0002B4349505354415455533A312C000000A3
:101BC0002B4349505354415455533A322C00000092
:101BD0002B4349505354415455533A332C00000081
:101BE0002B4349505354415455533A342C00000070
:101BF00041542B4349465352000000004150495084
:101C00002C22000041542B4349504D4F44453D3157
:101C1000000000003E00000041542B434950534552
:101C20004E4400002B2B2B000048004041542B4316
:101C3000495053454E443D25642C25640000000066
:101C400041542B43495053454E443D256400000008
:101C50003E20000053454E44204F4B002B4950443A
:101C600000000000000C014070B5784D06460024CD
:101C7000304655F8241001F0E1FF18B9641CE4B2B5
:101C8000082CF5D3724B0220012120221D1F082CA5
:101C900016D2DFE804F00406080A0D1012161A60C6
:101CA00010E02A6002E02A6003E01A6019600AE08E
:101CB0001A60296003E02A6000E01A601960186069
:101CC00070BD2A602960286070BD10B561A001F068
:101CD000EFFF67A001F0ECFF5D484FF4807114380E
:101CE000FEF739FDFFF78AFC0028FBD0FFF777FCF1
:101CF0000028FBD064A001F0DBFF0020FFF7A7FC69
:101D00000028FAD068A001F0D3FF6EA170A0FFF701
:101D1000B3FC0028F9D070A001F0CAFF0020FFF743
:101D2000CDFC0028FAD072A001F0C2FF052377A2F3
:101D300078A10020FFF7D5FC0028F7D079A001F0AA
:101D4000B7FFFFF765FE0028FBD07DA001F0B0FFD4
:101D5000BDE8104080A001F0ABBF70B5834DB5F871
:101D60000004000423D50024814E0BE0295D304699
:101D7000FEF7B7FF40213046FFF714F80028F9D0EE
:101D8000641CA4B2B5F80004C0F30E00A042EDD864
:101D9000B5F800046FF30E00A5F80004B5F80004D0
:101DA00020F40040A5F800047048FFF75DFF714D76
:101DB000B5F80004000423D500246F4E0BE0295D24
:101DC0003046FEF78EFF40213046FEF7EBFF00283D
:101DD000F9D0641CA4B2B5F80004C0F30E00A04210
:101DE000EDD8B5F800046FF30E00A5F80004B5F8BF
:101DF000000420F40040A5F800045E48FFF734FF1B
:101E00001248001F007800281FD0FFF716FEFFF7CA
:101E1000C8FC0028FBD0042813D158A001F048FFCB
:101E200028A12BA0FFF728FC0028F9D0052337A212
:101E300038A10020FFF755FC0028F7D057A001F08B
:101E400037FFFFF7E5FD0028FBD070BD4000002004
:101E5000140C01400D0AD5FDD4DAC5E4D6C32045E3
:101E6000535038323636202E2E2E2E2E2E0D0A00AE
:101E70000D0ACAB9C4DC2045535038323636202EFC
:101E80002E2E2E2E2E0D0A000D0AD5FDD4DAC5E415
:101E9000D6C3B9A4D7F7C4A3CABD20535441202E3A
:101EA0002E2E2E2E2E0D0A000D0AD5FDD4DAC1AC31
:101EB000BDD32057694669202E2E2E2E2E2E0D0AB8
:101EC0000000000031323334353637383900000035
:101ED00058652D31333100000D0ABDFBD6B9B6E08F
:101EE000C1ACBDD3202E2E2E2E2E2E0D0A000000AA
:101EF0000D0AD5FDD4DAC1ACBDD320536572766529
:101F000072202E2E2E2E2E2E0D0A00003130303053
:101F1000300000003139322E3136382E3232352E33
:101F2000320000000D0ABDF8C8EBCDB8B4ABB7A2C3
:101F3000CBCDC4A3CABD202E2E2E2E2E2E0D0A00D0
:101F40000D0AC5E4D6C3204553503832363620CD6D
:101F5000EAB1CF0D0A0000000D0ABFAACABCCDB875
:101F6000B4AB2E2E2E2E2E2E0D0A0000AE08002011
:101F700000480040AC040020003801400D0AD5FDA7
:101F8000D4DAD6D8C1ACC8C8B5E3BACDB7FECEF165
:101F9000C6F7202E2E2E2E2E2E0D0A000D0AD6D874
:101FA000C1ACC8C8B5E3BACDB7FECEF1C6F7B3C968
:101FB000B9A60D0A0000000000F108014FF0FF3241
:101FC000C0E90112C1600161002101607047002178
:101FD0000161704742684A6093688B6093685960FA
:101FE000916008610168491C0160704730B50C6858
:101FF000621C02D000F1080202E0026904E01A4605
:1020000053681D68A542FAD953684B6099608A608D
:10201000516008610168491C016030BDD0E901329E
:1020200001699A60D0E901235A604A68824201D16D
:1020300082684A60002202610868401E086070479A
:1020400070B50D46040005D140F21B12F7A1FEA0A9
:1020500001F02EFE01F044FDD4E90F20216802FBBF
:10206000001161600021A1632168A1600A46D4E9E2
:102070000F01401E00FB0121E16021464FF0FF30BF
:1020800001F8440F487004F110004DB1FFF794FFC0
:1020900004F12400FFF790FF01F03CFD012070BD2A
:1020A00021690029F8D001F082F80028F4D0EA492B
:1020B0004FF080500860BFF34F8FBFF36F8FEBE797
:1020C00070B50E46050005D14FF4C472D7A1DEA04D
:1020D00001F0EEFD96B105FB06F0483001F0AAFBD9
:1020E000040009D004F1480120464EB10160C0E966
:1020F0000F560121FFF7A4FF204670BD0020ECE73A
:102100000060F4E72DE9F041044601F0E9FC94F9A0
:10211000455004F1240609E0606A48B1304601F0F8
:1021200046F808B101F0F5F86D1E6DB2002DF3DC34
:102130004FF0FF3684F8456001F0ECFC01F0D0FC74
:1021400094F9445004F1100709E0206948B1384679
:1021500001F02DF808B101F0DCF86D1E6DB2002D14
:10216000F3DC84F84460BDE8F04101F0D3BC2DE914
:10217000F041856B164604460027026CFAB17EB129
:10218000E06801F037FDE168206C091AE16022681F
:10219000914202D26168081AE060022E0DD00EE072
:1021A000A06801F027FD216CA0680844A060616868
:1021B000884204D32068A06001E005B16D1E6D1C4B
:1021C000A5633846BDE8F0812DE9FF4F83B01F4677
:1021D0008B4604004FF0000605D140F2D92293A1AE
:1021E00099A001F065FDBBF1000F07D1206C28B16B
:1021F00040F2DA228DA194A001F05AFD022F08D1FD
:10220000E06B012805D040F2DB2288A18EA001F00E
:102210004FFD01F082F838B9059828B140F2DE226E
:1022200082A189A001F044FD4FF0000A4FF08058D0
:10223000DFF8249201F054FCA06BE16B884205D3D7
:10224000022F03D00598C8B1DEB11EE03A465946C8
:102250002046FFF78CFF616A19B104F1240000F0F9
:10226000A6FF28B1C9F80080BFF34F8FBFF36F8F6F
:1022700001F050FC012007B0BDE8F08F01F04AFCEE
:1022800021E0684601F001F8012601F043FC00F06E
:10229000A5FC01F025FC94F94400401C01D184F810
:1022A00044A094F94500401C01D184F845A001F0F8
:1022B00031FC05A9684600F0F9FF30B12046FFF770
:1022C00021FF00F0FDFB0020D5E701F009FCA06B29
:1022D000E16B884201D1012500E0002501F01AFCE4
:1022E00095B104F11000059900F023FF2046FFF797
:1022F00009FF00F0E5FB00289CD1C9F80080BFF37E
:102300004F8FBFF36F8F95E72046FFF7FBFE00F07E
:10231000D7FB8FE72DE9F0471F469046894604001A
:1023200005D140F29F3241A147A001F0C1FCB9F1B3
:10233000000F07D1206C28B14FF468723BA142A076
:1023400001F0B6FC022F08D1E06B012805D040F265
:10235000A13236A13CA001F0ABFC01F000FC502002
:10236000EFF3118680F31188BFF34F8FBFF36F8FA8
:10237000A06BE16B884206D3022F04D0002086F3C5
:102380001188BDE8F08794F945503A464946204601
:10239000FFF7EDFE681C04D06D1C84F84550012049
:1023A000EDE7606A0028FAD004F1240000F0FFFE97
:1023B0000028F4D0B8F1000FF1D00121C8F80010C6
:1023C000EDE770B50E46040005D140F23C4217A17E
:1023D0001DA001F06DFC206C28B14FF4886213A1A0
:1023E00019A001F065FC206838B9606828B140F296
:1023F00045420EA114A001F05BFC01F0B0FB50209F
:10240000EFF3118580F31188BFF34F8FBFF36F8F08
:10241000A16BE06B884231D994F94500491CA16356
:10242000411C1DD0401C84F8450017E02E2E5C2E68
:102430002E5C4672656552544F535C7372635C71D7
:10244000756575652E6300004572726F723A25736B
:102450002C25640D0A00000004ED00E001200EE0D0
:10246000606A0028E1D004F1240000F0A0FE0028FA
:10247000DBD0002ED9D001203060D6E7002085F3D4
:10248000118870BD30B4026C0B46002A0BD0C168B5
:102490001144C1604468A14201D30168C16030BCED
:1024A000184601F0A7BB30BC70472DE9FF4F83B041
:1024B0009B468A4604004FF0000607D140F2DC42FA
:1024C000AFF29801AFF2800001F0F2FBBAF1000F19
:1024D00009D1206C38B140F2DD42AFF2B001AFF269
:1024E000980001F0E5FB00F018FF48B9059838B1F5
:1024F0004FF49C62AFF2CC01AFF2B40001F0D8FB14
:102500004FF000094FF08057DFF8448301F0E8FAFC
:10251000A56B0DB351462046E668FFF7B3FFBBF14C
:10252000000F11D0E660606A50B104F1240000F0A1
:102530003EFE28B1C8F80070BFF34F8FBFF36F8F16
:1025400001F0E8FA012096E66D1EA56320690028D7
:10255000F6D004F11000EAE7059808B11EB106E0D4
:1025600001F0D8FA27E0684600F08FFE012601F05E
:10257000D1FA00F033FB01F0B3FA94F94400401CA7
:1025800001D184F8449094F94500401C01D184F8AD
:10259000459001F0BFFA05A9684600F087FE0028C3
:1025A00020460AD0FFF7AEFD00F08AFA204600F080
:1025B00041F90028AAD000205DE600F03BF990B177
:1025C00004F12400059900F0B4FD2046FFF79AFDC0
:1025D00000F076FA002899D1C8F80070BFF34F8F49
:1025E000BFF36F8F92E72046FFF78CFD00F068FA8B
:1025F0008CE72DE9F04790468946040007D14FF457
:10260000B462AFF2D811AFF2C01001F051FBB9F1D2
:10261000000F09D1206C38B140F2A152AFF2F41191
:10262000AFF2DC1001F044FB01F099FA5020EFF317
:10263000118780F31188BFF34F8FBFF36F8FA66BA5
:10264000F6B194F9445049462046FFF71BFF761E29
:10265000A663681C04D06D1C84F84450012010E06F
:1026600020690028FAD004F1100000F0A0FD002835
:10267000F4D0B8F1000FF1D00121C8F80010EDE757
:10268000002087F311887CE62DE9F0410E46040016
:1026900007D140F2FC52AFF26C21AFF2542001F0AE
:1026A00007FB4EB9206C48B140F2FD52AFF28421D5
:1026B000AFF26C2001F0FCFA206C38B940F2FE5207
:1026C000AFF29821AFF2802001F0F2FA01F047FA60
:1026D0005020EFF3118580F31188BFF34F8FBFF3C4
:1026E0006F8FA06B30B131462046E768FFF7CAFE16
:1026F0000120E76085F3118864E510B5040007D177
:1027000040F22F62AFF2DC21AFF2C42001F0D0FA28
:1027100001F0E6F9A46B01F0FDF9204610BD10B5FB
:10272000040007D140F24162AFF20031AFF2E8207D
:1027300001F0BEFA01F0D4F9D4E90E10441A01F008
:10274000E9F9204610BD10B5040007D140F25162EE
:10275000AFF22831AFF2103001F0AAFAA06B10BD31
:102760003C4A002102EBC1035B68834206D1002092
:1027700042F8310002EBC10148607047491C0A2948
:10278000F0D3704710B5040007D140F25D62AFF29C
:102790006431AFF24C3001F08BFA2046FFF7E0FFD6
:1027A0002046BDE8104001F0B0B810B5040007D1D4
:1027B00040F29372AFF28C31AFF2743001F078FADC
:1027C000A06B08B1002010BD012010BD10B50400A1
:1027D00007D140F2BA72AFF2AC31AFF2943001F0EF
:1027E00067FAA06BE16B884201D1012010BD002087
:1027F00010BD10B5174B002253F832401CB1521CCB
:102800000A2AF9D310BD43F8321003EBC201486025
:1028100010BD10B500240F4A214602EBC1035B68CE
:10282000834202D152F8314002E0491C0A29F4D314
:10283000204610BD10B5044601F052F9A06B20B13E
:10284000002401F067F9204610BD0124F9E70000DB
:1028500004ED00E0B00C00202DE9F041054601F048
:102860003FF9FE4EB068401CB0603068FC4F10B1BC
:10287000706930B32BE03560B068012827D100249F
:1028800004EB840007EB8000FFF796FB641C202C10
:10289000F6D3F448FFF790FBF2481430FFF78CFBB7
:1028A000F0482830FFF788FBEE483C30FFF784FB08
:1028B000EC485030FFF780FBEA4870631430B06397
:1028C00005E03068E96AC06A884200D83560706AFD
:1028D0000121401C7062E86A326981401143316114
:1028E00000EB800007EB8000291DFFF773FB01F070
:1028F00011F9706900280CD03068E96AC06A884212
:1029000007D2D9494FF080500860BFF34F8FBFF313
:102910006F8FBDE8F0812DE9FF5F8346DDE90E870B
:10292000994616468A46900000F084FF05001AD0AA
:102930004C2000F07FFF040012D025630021CDE978
:102940000241CDE900874B4632465146584600F0D9
:10295000ADFE2046FFF780FF012004B0BDE8F09FE8
:10296000284600F0D2FF4FF0FF30F6E770B504467E
:1029700001F0B6F8B94D04B92C68201DFFF74EFBE5
:1029800058B9E06AB64A00EB800152F8211021B92B
:1029900001218140286988432861A06A18B104F1A7
:1029A0001800FFF73BFB686A401C68622868844295
:1029B00008D1AC48211D3C30FFF70CFB6868401C77
:1029C000686007E0A868401EA860204600F0BFFECF
:1029D00000F0B0FE01F09EF86869002812D0286867
:1029E00084420FD1286B28B140F265429FA1A6A076
:1029F00001F05EF99C494FF080500860BFF34F8FA3
:102A0000BFF36F8F70BD2DE9F041944F0026386BF6
:102A100038B1B869401CB861F86900B10126304688
:102A200077E7FD686D1CFD6011D1786B006828B1F7
:102A300040F6D9128DA194A001F03AF9786BB96BE8
:102A40007963B863386A401C386200F073FEB86A74
:102A5000DFF80C82854209D3786B006880B1786B0F
:102A6000C068C468606885420DD2B8623868C06AC0
:102A700000EB800158F821000128CDD90126CBE7D1
:102A80004FF0FF30F1E7201DFFF7C8FAA06A18B138
:102A900004F11800FFF7C2FAE06A01213A698140A7
:102AA0001143396100EB800108EB8100211DFFF724
:102AB00091FAE06A3968C96A8842CDD30126CBE72A
:102AC0002DE9F047654D00242746286B28B94FF4BF
:102AD000FD6266A16CA001F0EBF801F001F8286B33
:102AE000401E2863286BE0BBA8685E492831012698
:102AF000B8B3DFF86C918846D8F80010E9B1D8F87F
:102B00000C00C46804F11800FFF788FA201DFFF7D5
:102B100085FAE06A2A6906FA00F11143296100EB9F
:102B2000800109EB8100211DFFF754FAE06A296852
:102B3000C96A8842E0D3EE61DEE70CB100F0FAFD2D
:102B4000AC693CB1FFF75FFF00B1EE61641EF9D1E3
:102B50000020A861E86920B14349012738070860CF
:102B600000E003E0BFF34F8FBFF36F8F00F0D2FFA1
:102B70003846BDE8F0872DE9F041384E0F4604464F
:102B8000F5683068001DFFF749FA38B9306890F8E9
:102B90002C1001208840316981433161601C08D1CB
:102BA0003FB13168BDE8F0412E485030091DFFF7B4
:102BB00011BA30682C44AC424460316805D2B06B25
:102BC000BDE8F041091DFFF711BA706B091DFFF751
:102BD0000DFAB06A844200D2B4629AE61F48016BD3
:102BE000491C016370472DE9F0410E4605004FF086
:102BF000000405D140F279421CA123A001F058F84D
:102C00002EB940F27A4219A11FA001F051F8134FDA
:102C1000386B28B140F27B4214A11BA001F048F8A8
:102C2000FFF7DCFFFA6828688119904202D98842D0
:102C300002D804E0884201D8914200D901242960D9
:102C40001CB1881A0021FFF796FFFFF739FF002813
:102C500026D105494FF0805008601DE0600000203B
:102C6000000D0020800F002004ED00E02E2E5C2ED1
:102C70002E5C4672656552544F535C7372635C748C
:102C800061736B732E6300004572726F723A257325
:102C90002C25640D0A000000BFF34F8FBFF36F8F28
:102CA00037E610B5040014D0FE49096B39B140F283
:102CB000CF42AFF24801AFF2300000F0F9FFFFF76A
:102CC0008DFF00212046FFF756FFFFF7F9FE002891
:102CD00007D1F5494FF080500860BFF34F8FBFF325
:102CE0006F8F10BD70B5050007D140F2FB42AFF207
:102CF0008401AFF26C0000F0DBFFEA4E30688542E1
:102D000001D1002070BD00F0EBFE6C6900F002FF05
:102D1000706B844202D0B06B844201D1022070BD3E
:102D2000E248844204D1A86A0028F7D1032070BD8C
:102D3000DE481438844202D00CB1012070BD04205A
:102D400070BD10B5044600F0CBFE0CB9D548046840
:102D5000E46A00F0DFFE204610BD10B5044600F026
:102D6000FEFE5020EFF3118180F31188BFF34F8FE7
:102D7000BFF36F8F0CB9CB480468E06A81F3118808
:102D800010BD2DE9F04100260D460446202908D348
:102D90004FF4B062AFF22C11AFF2141000F088FFC4
:102DA0001F2500F09DFEBF4F04B93C68E06AA842B1
:102DB0003BD03968854206D98C4207D03968C96A48
:102DC000A94202D902E08C4200D101268046E56288
:102DD000A069002802DBC5F12000A061B44D08EB1A
:102DE0008800616905EB8000814215D1201DFFF745
:102DF00015F9012120B93A6901FA08F082433A61D4
:102E0000E06A3A6981401143396100EB800005EBCB
:102E10008000211DFFF7DEF83EB1A3494FF080503E
:102E20000860BFF34F8FBFF36F8FBDE8F04100F034
:102E300071BE70B59B4D286B10B10120E86170BD6B
:102E40000020E86128699A4EB0FA80F0C0F11F00B6
:102E500000EB800456F8240038B940F6F622AFF2B1
:102E6000F411AFF2DC1000F023FF06EB840000F158
:102E70000802416849684160914201D14968416056
:102E8000C868286070BD70B5044600F029FE854D05
:102E900004B92C68201DFFF7C1F858B9E06A844ACC
:102EA00000EB800152F8211021B9012181402869ED
:102EB00088432861A06A18B104F11800FFF7AEF842
:102EC000211D7A48FFF786F800F024FE686928B1D2
:102ED00000F006FE00F02EFC00F01CFE2868844284
:102EE00013D1686990B1286B38B140F25762AFF2E4
:102EF0008421AFF26C2000F0DBFE6B494FF0805074
:102F00000860BFF34F8FBFF36F8F70BD6748A9682C
:102F10000068884202D10020286070BDBDE8704082
:102F200087E770B50025040007D140F28162AFF257
:102F3000C421AFF2AC2000F0BBFE5C49606988425E
:102F400005D1A06A2839884201D000B90125284658
:102F500070BD70B504002BD0524D2868844231D02A
:102F600000F0BEFD2046FFF7DCFFE8B1201DFFF7B3
:102F700055F8E06A01212A698140114329614C49D1
:102F800000EB800001EB8000211DFFF723F8E06AD1
:102F90002968C96A884207D343494FF080500860C6
:102FA000BFF34F8FBFF36F8FBDE8704000F0B2BD2D
:102FB00040F2AB62AFF24C31AFF23430BDE870405A
:102FC00000F076BE70BD2DE9F0410026040007D167
:102FD00040F2E262AFF26C31AFF2543000F068FEC2
:102FE00000F0BDFD5020EFF3118580F31188BFF391
:102FF0004F8FBFF36F8F2046FFF793FFF0B1294F3C
:10300000386B20B1294804F11801283814E0E06A2F
:103010003968C96A884200D30126201DFEF7FEFFE9
:10302000E06A01213A69814011433961204900EB8E
:10303000800001EB8000211DFEF7CCFF85F3118895
:10304000304666E41A4E4FF08054174D00F089FB6D
:1030500030680128FAD92C60BFF34F8FBFF36F8F10
:10306000F4E71CB50F4800242C30CDE9004023467E
:10307000802210A11148FFF74EFC01280CD0401C03
:103080002BD140F28472AFF21C41AFF2044002B087
:10309000BDE8104000F00CBE502080F31188BFF353
:1030A0004F8F0DE06000002004ED00E0D00F002005
:1030B000000D002049444C45000000004530000848
:1030C000BFF36F8FFF484FF0FF31816201214161F3
:1030D000C460BDE81C4000F0C1BC1CBD502080F3A2
:1030E0001188BFF34F8FBFF36F8FF64900204861FF
:1030F00000F0EABCF348C068704710B500F02FFD3F
:10310000F048C06810BDEF488068704710B510B136
:1031100004461CB10AE0EB480468FAE740F68C026A
:10312000AFF2B841AFF2A04000F0C2FD04F13400AC
:1031300010BD70B50D46040007D140F60632AFF25F
:10314000D441AFF2BC4000F0B3FDDE480168204638
:103150001831FEF74BFF2846BDE8704001210AE513
:103160002DE9F04117460E46050007D140F617320B
:10317000AFF20851AFF2F04000F09AFDD14C206B55
:1031800038B940F61B32AFF21C51AFF2045000F0D8
:103190008FFD216846F0004088612168284618317B
:1031A000FEF718FF3846BDE8F0410121E3E42DE9C0
:1031B000F041C068C4683CB940F66132AFF2545186
:1031C000AFF23C5000F074FD04F118000746FEF722
:1031D00025FFBC4D286B012658B13946BA48FEF789
:1031E000F9FEE06A2968C96A884212D90120EE61B5
:1031F00016E4201DFEF712FFE06A2A6906FA00F1C4
:1032000011432961B14900EB800001EB8000211DD1
:10321000E5E7002004E470B5AA4D06460C46286B8D
:1032200038B940F69932AFF2BC51AFF2A45000F079
:103230003FFD44F000403060F4683CB940F6A132F4
:10324000AFF2D851AFF2C05000F032FD3046FEF779
:10325000E5FE201DFEF7E2FEE06A01262A6906FA75
:1032600000F111432961994900EB800001EB8000D6
:10327000211DFEF7AFFEE06A2968C96A884202D9BB
:103280000120EE6170BD002070BD10B5040007D1B3
:1032900040F6C132AFF22C61AFF2146000F008FDCD
:1032A0008848016A2160C068606010BD70B50D4635
:1032B000040007D140F6CB32AFF25061AFF2386074
:1032C00000F0F6FC3DB940F6CC32AFF26061AFF2EF
:1032D000486000F0EDFC00F003FC7A4AD0682968F1
:1032E0004B1C0FD02368126A934202D0626882425C
:1032F0000AD96268801A884206D2081A28602046D5
:10330000FFF7C3FF002400E0012400F003FC204687
:1033100070BD6C490120C86170476A48416919B1A4
:10332000006B18B1002070470120704702207047E1
:10333000644908680A688069D26A0968C2F1200293
:103340008A61704770B50C46064600F0C9FB5D4DBA
:103350002868406C80B92968012081F848005CB178
:1033600001212046FFF707FC59494FF080500860C3
:10337000BFF34F8FBFF36F8F00F0CCFB00F0B0FBBB
:103380002868446C002034B116B12968486402E012
:103390002A68611E5164296881F8480000F0BAFB70
:1033A000204670BD2DE9F0411E4615468846074669
:1033B00000F096FB434C206890F84800022814D097
:1033C0002068416CB94341642168012081F84800BC
:1033D0005EB101213046FFF7CEFB3D494FF08050F2
:1033E0000860BFF34F8FBFF36F8F00F093FB00F0C7
:1033F00077FB15B12068406C2860206890F8480081
:1034000001280DD02068416C21EA080141640125A2
:103410002168002081F8480000F07CFB28463FE44A
:103420000025F5E72DE9F0411F4690460D460400C2
:103430004FF0010607D141F2FD02AFF2D071AFF2B9
:10344000B87000F035FC00F04BFB0FB1606C3860D9
:1034500094F84800022184F84810B8F1050F0ED204
:10346000DFE808F00D03060C0A00616C294301E057
:10347000616C491C616402E0022803D06564012884
:1034800002D033E0002631E0201DFEF7C7FD0D4DD0
:10349000E06A01212A698140114329610B4900EB4F
:1034A000800001EB8000211DFEF794FDA06A38B179
:1034B00041F23512AFF64C01AFF6340000F0F8FBE4
:1034C000E06A07E060000020A80F0020000D002047
:1034D00004ED00E02968C96A884207D9B4494FF071
:1034E00080500860BFF34F8FBFF36F8F00F012FB67
:1034F0003046A6E52DE9F0471F46DDF820909246BC
:103500000D4604004FF0010807D141F26812AFF6F2
:10351000A401AFF68C0000F0CBFB00F020FB5020A4
:10352000EFF3118680F31188BFF34F8FBFF36F8FD6
:103530000FB1606C386094F84800022184F848109C
:10354000BAF1050F0ED2DFE80AF00D03060C0A00EF
:10355000616C294301E0616C491C616402E002284E
:1035600003D06564012803D031E04FF000082EE05D
:10357000A06A38B141F2AF12AFF61011AFF6F80001
:1035800000F096FB8B4D286B012778B104F11801F0
:103590008948FEF71FFDE06A2968C96A884216D982
:1035A000B9F1000F12D0C9F8007010E0201DFEF72D
:1035B00035FDE06A2A6907FA00F11143296100EB41
:1035C00080017E4800EB8100211DE2E7EF6186F378
:1035D00011884046BDE8F0872DE9F0418846040097
:1035E00007D141F2E312AFF67C11AFF6641000F0A0
:1035F0005FFB00F0B4FA5020EFF3118780F31188DD
:10360000BFF34F8FBFF36F8F94F84800022184F807
:103610004810616C491C616401282ED1A06A38B140
:1036200041F20922AFF6BC11AFF6A41000F040FB46
:10363000604D286B012678B104F118015E48FEF751
:10364000C9FCE06A2968C96A884216D9B8F1000F36
:1036500012D0C8F8006010E0201DFEF7DFFCE06A21
:103660002A6906FA00F111432961544900EB8000F0
:1036700001EB8000211DE2E7EE6187F31188E0E4B1
:1036800010B558B1044600F02BFA94F8480002280F
:1036900007D0002400F03EFA204610BD45480468DB
:1036A000F1E7002084F848000124F3E72DE9F04712
:1036B0000E46DDE9098482466FF00301206B01EBC1
:1036C00082010844089D20F007079946780705D035
:1036D00040F22B323AA141A000F0EAFA0020221871
:1036E000315C82F83410315C11B1401C1028F6D3E3
:1036F000002684F84360202D00D31F25201DE5629D
:10370000FEF765FC04F11800FEF761FC2461C5F1C9
:1037100020006462A061666484F848604A465146AD
:10372000384600F07EF92060B8F1000F01D0C8F8EB
:1037300000404FE71F48416B096829B1416BC968D8
:10374000C9684968816270474FF0FF31FAE710B5E8
:103750000446006B00F0D9F82046BDE8104000F0A8
:10376000D4B870B5144E134D14361CE0FFF736FA7A
:10377000306820B10024FFF7A3F9A4B901E00124C7
:10378000F9E700F0ADF9F068C468201DFEF746FCCB
:10379000A868401EA8606868401E686000F0BAF91A
:1037A0002046FFF7D4FF68680028DFD170BD000015
:1037B00004ED00E060000020A80F0020000D0020B4
:1037C0002E2E5C2E2E5C4672656552544F535C73F0
:1037D00072635C7461736B732E6300004572726F69
:1037E000723A25732C25640D0A00000030B5744927
:1037F00000E011460A688242FBD34B685C188442A1
:1038000003D1406818444860084643681C18944235
:1038100009D16B4C103C2468A24209D052681A446A
:1038200042600A6812680260814200D0086030BDC0
:103830000460F9E72DE9F04105460026FFF7CEF9CF
:103840005F4F103F386808B900F098F8F8680542F3
:103850004ED1002D4CD0083568070BD005F007007D
:10386000C0F108000544680704D0BF2255A15FA03D
:1038700000F01EFA002D3BD07868854238D85049B8
:103880000846046801E0214604466068A84202D266
:1038900020680028F7D13868B846844228D00E68DE
:1038A0002068086060680836401B10280ED9671928
:1038B000780704D0EC2243A14CA000F0F9F960682D
:1038C000401B786038466560FFF790FF6168D8F864
:1038D00004004246401AC8F80400D8F8083098425C
:1038E00000D29060D8F80C0001430020C4E9000128
:1038F000FFF7E6F8700705D04FF4967231A13BA0B0
:1039000000F0D6F93046BDE8F08170B500282BD024
:103910002B4DA0F10804103D6068E968084205D10C
:103920004FF4A07227A131A000F0C2F9206828B19D
:1039300040F2411223A12DA000F0BAF96068E968B5
:10394000084211D02268002A0ED188436060FFF738
:1039500045F960686968084468602046FFF746FFDB
:10396000BDE87040FFF7ACB870BD1548103840682E
:103970007047134810388068704770471F484FF4ED
:103980001041420706D0C01D1C4920F00700411A13
:10399000C1F510410A4A00230144C2E90003083975
:1039A000103A21F0070111604B600B600B1AC0E95F
:1039B000001393604FF000405360D06070470000E8
:1039C000AC0000202E2E5C2E2E5C46726565525493
:1039D0004F535C706F72745C4D656D4D616E675CCA
:1039E000686561705F342E63000000004572726F7D
:1039F000723A25732C25640D0A000000E40F0020A4
:103A000069484068401C04D0F42268A171A000F00D
:103A10004FF9502080F31188BFF34F8FBFF36F8FA2
:103A2000FEE710B5031F4FF080741C601B1F21F0D0
:103A300001011960191F6B4B0B60143940380A6083
:103A400010BD69484FF47A710068B0FBF1F14FF096
:103A5000E020491E41610721016170471CB563499F
:103A600008780190FF20087008788DF800009DF814
:103A700000004D4A00F0500010700720906007E0F1
:103A80009068401E90609DF8000040008DF8000096
:103A90009DF800000006F3D4107A000200F4E06004
:103AA0009060019808705248016841F4700101600B
:103AB000016841F070410160FFF7C3FF00205060D2
:103AC000FCF754FB00201CBD37484068B0F57A7FF6
:103AD00005D04FF4B57235A13EA000F0E9B87047AB
:103AE000502080F31188BFF34F8FBFF36F8F2E49A3
:103AF0004868401C486001280BD13D481C380068CC
:103B000010F0FF0F05D04FF4BD7228A131A000F0D6
:103B1000CFB8704710B5244C606828B940F28112C4
:103B200022A12CA000F0C4F86068401E606001D1A2
:103B300080F3118810BD10B5502080F31188BFF3B9
:103B40004F8FBFF36F8FFEF75EFF20B128494FF014
:103B500080501C390860002080F3118810BD10B51A
:103B6000FCF73AFB104C10280CD300F1E02090F841
:103B7000F0032178884205D24FF42A720BA115A0D8
:103B800000F096F81A4814380068A16800F4E06064
:103B9000884207D9BDE810404FF42E7203A10DA052
:103BA00000F086B810BD0000B40000202E2E5C2E60
:103BB0002E5C4672656552544F535C706F72745C34
:103BC000525644535C41524D5F434D335C706F72AB
:103BD000742E63004572726F723A25732C25640D42
:103BE0000A000000013A00080000002000E400E0A4
:103BF00020ED00E040EA01039B0703D009E008C97B
:103C0000121F08C0042AFAD203E011F8013B00F8A1
:103C1000013B521EF9D27047D2B201E000F8012BED
:103C2000491EFBD270470022F6E710B513460A463C
:103C300004461946FFF7F0FF204610BD30B5054693
:103C40002A460B4612F8010B13F8014B08B1A042AB
:103C5000F8D01CB1002802D06D1CF1E7284630BD19
:103C600030B50B46014600202022012409E021FA4C
:103C700002F59D4205D303FA02F5491B04FA02F549
:103C80002844151EA2F10102F1DC30BD064C074D9F
:103C900006E0E06840F0010394E80700984710341C
:103CA000AC42F6D3FCF748FA383F0008583F00080A
:103CB0000FB4054B10B503A9044A029800F02CF884
:103CC00010BC5DF814FB000087130008C000002042
:103CD0000FB4084B10B504A902AA039800F01CF811
:103CE000044602A9002000F0F3F8204610BC5DF85D
:103CF00014FB0000D13E000802E008C8121F08C1F2
:103D0000002AFAD170477047002001E001C1121F5C
:103D1000002AFBD1704700002DE9FF4F8BB09A4677
:103D20000F460546002606E025280BD052460D9981
:103D300090476D1C761C28780028F5D10FB03046CE
:103D4000BDE8F08F0024A0460122604900E0044352
:103D500015F8013F203B02FA03F00842F7D128781A
:103D60002E2817D115F8010F44F004042A280ED08C
:103D70006FF02F022878A0F1300109290AD808EB4A
:103D8000880102EB410100EB01086D1CF2E757F8D6
:103D9000048B6D1C287869283ED006DC0028CDD025
:103DA00063280BD0642804D136E0732810D075281E
:103DB0004BD052460D999047761C85E017F8040BBE
:103DC0008DF8000000208DF80100E946012003E095
:103DD00057F8049B4FF0FF3061074FF0000401D407
:103DE0000AE0641C44450DDA8442FADB19F8041039
:103DF0000029F6D106E0641C8442FCDB19F80410AB
:103E00000029F8D1264404E019F8010B52460D9917
:103E10009047641EF8D257E001CF4FF00A0B0028FC
:103E200002DA40422D2102E0210504D52B218DF834
:103E30002410012103E0E10705D02021F7E70DF16F
:103E4000200908910CE00021F9E701CF4FF00A0B9F
:103E5000F9E75946FFF704FF01F1300209F8012D97
:103E60000028F6D1ADEB090000F1200B600701D46A
:103E70004FF00108D84502DDA8EB0B0000E0002060
:103E80008046002406E009A85246005D0D9990473F
:103E9000641C761C08988442F5DB04E0302052460E
:103EA0000D999047761CB8F10001A8F10108F5DCE6
:103EB00005E019F8010B52460D999047761CBBF1AD
:103EC0000001ABF1010BF4DC6D1C34E709280100A3
:103ED0000A68531C0B601070704700004C45445F2B
:103EE000524544004C45445F505552504C450000EB
:103EF0004C45445F57484954450000004C45445FD9
:103F0000424C5545000000004C45445F5247424F2B
:103F1000464600004C45445F4359414E00000000B6
:103F20004C45445F475245454E0000004C45445FB8
:103F300059454C4C4F570000583F000800000020E6
:103F4000C4000000F83C00081C400008C400002029
:103F500024A30000083D000800A24A04000000005D
:103F60000000000001020304060708090204060815
:103F7000000000000102030401020304060708090F
:103F80000000000000000000000000000000000031
:103F90000000000000000000DC3E0008203F000898
:103FA000FC3E00082C3F0008E43E0008143F0008D7
:103FB000F03E0008083F000800000000000000007C
:103FC00000000000000000000000000000000000F1
:103FD00000000000000000000000000000000000E1
:103FE00000000000000000000000000000000000D1
:103FF00000000000000000000000000000000000C1
:1040000000000000000000000000000000000000B0
:0C401000AAAAAAAA0000000000000000FC
:0400000508000131BD
:00000001FF
